:020000040800F2
:100000007008002081030008B1360008B3360008EC
:10001000B7360008BB360008BF36000800000000F5
:10002000000000000000000000000000C3360008CF
:10003000C536000800000000C7360008C9360008B1
:100040009B0300089B0300089B0300089B03000818
:100050009B0300089B0300089B0300089B03000808
:100060009B0300089B0300089B0300089B030008F8
:100070009B0300089B0300089B0300089B030008E8
:100080009B0300089B0300089B0300089B030008D8
:100090009B0300089B0300089B0300089B030008C8
:1000A0009B0300089B0300089B0300089B030008B8
:1000B00029380008C73800089B0300089B03000884
:1000C0009B0300089B0300089B0300089B03000898
:1000D0009B0300081D3B00089B030008353B0008FC
:1000E0009B0300089B0300089B03000800F002F834
:1000F00000F047F80AA090E8000C82448344AAF17B
:100100000107DA4501D100F03CF8AFF2090EBAE878
:100110000F0013F0010F18BFFB1A43F0010318473B
:100120004847000068470000103A24BF78C878C1EB
:10013000FAD8520724BF30C830C144BF04680C60ED
:10014000704700000023002400250026103A28BF35
:1001500078C1FBD8520728BF30C148BF0B60704739
:10016000782903F04D85002070471FB59DE80300F6
:1001700004F01CF903F022FE1FBD10B503F087FE4A
:1001800010BD03F0EAFE1146FFF7EFFF03F05AFA45
:1001900004F0DAF803B4FFF7F0FF03BC04F098FAB8
:1001A0000CB50020019000906C48006840F480304D
:1001B0006A49086000BF6948006800F40030009098
:1001C0000198401C0190009818B90198B0F5A06FF3
:1001D000F1D16248006800F4003010B101200090B5
:1001E00001E0002000900098012843D15C4800689D
:1001F00040F010005A4908600846006820F00300EB
:1002000008600846006840F00200086053484068F3
:10021000524948600846406848600846406840F4D3
:10022000806048600846406820F47C1048600846BA
:10023000406840F4E81048600846006840F080706C
:10024000086000BF4548006800F000700028F9D041
:100250004248406820F00300404948600846406832
:1002600040F00200486000BF3C48406800F00C00CD
:100270000828F9D10CBD10B5FFF792FF10BD10B5DD
:100280003648006840F0010034490860084640687C
:1002900034490840314948600846006832490840FE
:1002A0002E4908600846006820F48020086008464F
:1002B000406820F4FE0048604FF41F008860FFF79C
:1002C000DAFF4FF000602949086010BD10B5002129
:1002D00000200022214B5B6803F00C0121B10429AE
:1002E00006D0082928D107E0214B224C236027E0C3
:1002F0001F4B204C236023E0184B5B6803F4701005
:10030000164B5B6803F48032022303EB904022B962
:10031000194B4343174C23600DE0104B5B6803F40B
:10032000003323B1144B4343124C236003E0104BC2
:100330004343104C236003E00D4B0E4C236000BF81
:1003400000BF064B5B68C3F303130C4CE15C094B25
:100350001B68CB40074C236010BD0000001002401A
:10036000002002400000FFF8FFFFF6FE08ED00E06D
:1003700000127A000000002000093D000400002067
:100380000948804709480047FEE7FEE7FEE7FEE729
:10039000FEE7FEE7FEE7FEE7FEE7FEE70448054965
:1003A000054A064B704700007F020008ED00000878
:1003B00070020020700800207004002070040020EB
:1003C00031490143314A1160704770B50021002363
:1003D0000F22C47804B32D4C246804F4E064C4F5FF
:1003E000E064210AC1F10403CA40447804FA03F12D
:1003F0008478144021430901254C0678A1550478DE
:1004000004F01F050124AC4005786D11AD0005F125
:10041000E025C5F8004109E0047804F01F05012437
:10042000AC401C4D0678761145F8264070BD1A4A3E
:100430000A400243154B1B1F1A60704739B1134A1B
:10044000121D12680243114B1B1D1A6006E00F4A71
:10045000121D126882430D4B1B1D1A607047042841
:1004600008D14FF0E021096941F004014FF0E0228A
:10047000116107E04FF0E021096921F004014FF01C
:10048000E0221161704700000000FA050CED00E069
:1004900000E400E080E100E080FFFF1F0146002053
:1004A000FE4A106800F03800084310607047FB49AE
:1004B000096821F00801F94A1160114609680143F1
:1004C00011607047F549096821F01001F34A116085
:1004D00011460968014311607047F148EF494860CF
:1004E000F04848607047EE48EC494860ED48486085
:1004F0007047EA48006940F08000E84908617047A9
:10050000E648006940F08000E44908617047042033
:10051000E249C96801F0010109B101200EE0DF499B
:10052000C96801F0040109B1022007E0DB49C9688C
:1005300001F0100109B1032000E00420704700B56C
:1005400002460423FFF7E3FF034603E0FFF7DFFF64
:100550000346521E012B01D1002AF7D102B905230F
:10056000184600BD30B5044604254FF43020FFF78F
:10057000E6FF0546042D17D1C848006940F0020087
:10058000C649086108464461006940F040000861BE
:100590004FF43020FFF7D3FF0546C048006941F60D
:1005A000FD710840BD490861284630BD10B50424DE
:1005B0004FF43020FFF7C3FF0446042C16D1B74890
:1005C000006940F00400B54908610846006940F040
:1005D000400008614FF43020FFF7B1FF0446AF48F8
:1005E000006941F6FB710840AC490861204610BD26
:1005F00000B502460423FFF78AFF034603E0FFF736
:1006000086FF0346521E012B01D1002AF7D102B901
:100610000523184600BD10B504244FF43020FFF721
:10062000E7FF0446042C16D19C48006940F0040002
:100630009A4908610846006940F0400008614FF49B
:100640003020FFF7D5FF04469448006941F6FB715E
:10065000084092490861204610BD00208F49C969B1
:1006600001F0020109B1012000E00020704730B51F
:10067000A5250424FFF7F1FF00B100254FF4302039
:10068000FFF75DFF0446042C3AD185488349886012
:10069000844888600846006940F0200008610846E8
:1006A000006940F0400008614FF43020FFF747FF39
:1006B0000446042C1BD17948006941F6DF710840DB
:1006C000764908610846006940F0100008617648E4
:1006D0000580E002FFF733FF0446052C10D06F4879
:1006E000006941F6EF7108406C49086108E0052C8B
:1006F00006D06A48006941F6EF7108406749086111
:10070000204630BD78B506460C46042500200090F2
:10071000E802FFF714FF0546042D24D15F48006965
:1007200040F001005D4908613480E802FFF707FFEF
:100730000546042D10D1B01C0090200C00990880B3
:10074000E802FFF7FCFE05465448006941F6FE71D9
:1007500008405249086106E05048006941F6FE71C0
:1007600008404E490861284678BD70B504460D46DC
:100770000426F002FFF7E3FE0646042E11D1474897
:10078000006940F00100454908612580F002FFF74B
:10079000D6FE06464148006941F6FE7108403F49D1
:1007A0000861304670BD70B505460E460424E0026F
:1007B000FFF7C5FE0446042C17D139483749886035
:1007C000384888600846006940F0100008612E80B3
:1007D000E002FFF7B4FE0446052C06D02F4800695E
:1007E00041F6EF7108402D490861204670BD2DE9A2
:1007F000F04304464FF6FF763746B046B14604252F
:10080000E443E6B2C4F30727C4F307484FEA146988
:10081000E802FFF794FE0546042D49D120481F4900
:100820008860204888600846006940F01000086130
:10083000FF2E06D01C4808300680E802FFF77FFE36
:100840000546042D08D1FF2F06D017480A3007802F
:10085000E802FFF774FE0546042D0AD1B8F1FF0F38
:1008600007D011480C30A0F80080E802FFF767FEBF
:100870000546042D0AD1B9F1FF0F07D00A480E3002
:10088000A0F80090E802FFF75AFE0546052D0FD0AC
:100890000248006941F6EF71084007E0002002407D
:1008A00023016745AB89EFCD00F8FF1F664908615A
:1008B0002846BDE8F08330B5054604244FF43020C7
:1008C000FFF73DFE0446042C41D160485E49886034
:1008D0005F4888600846006940F0200008610846CB
:1008E000006940F0400008614FF43020FFF727FE18
:1008F0000446042C22D15448006941F6DF710840B7
:10090000514908610846006940F0100008611DB1B6
:1009100000205049088002E0A5204E4908804FF48D
:100920003020FFF70CFE0446052C10D04648006925
:1009300041F6EF7108404449086108E0052C06D0F3
:100940004148006941F6DF7108403F49086120468F
:1009500030BDF0B505460E46174604243B483A49DB
:1009600088603B488860E002FFF7E9FD0446042CFC
:1009700019D13548006940F010003349086147F04B
:10098000F800304328433349891C0880E002FFF710
:10099000D6FD0446052C06D02B48006941F6EF71C0
:1009A0000840294908612046F0BD2748C0698008F1
:1009B00070472548006A704700202349096801F004
:1009C000200109B1012000E00020704729B11E4A32
:1009D000126902431C4B1A6104E01B4A12698243EC
:1009E000194B1A61704701460020012908D1164AA7
:1009F000D26902F001020AB1012008E0002006E0FD
:100A0000114AD2680A400AB1012000E00020704774
:100A10000D49C860704704200B49C96801F0010105
:100A200009B101200EE00849C96801F0040109B1CB
:100A3000022007E00449C96801F0100109B1032050
:100A400000E00420704700000020024023016745B9
:100A5000AB89EFCD00F8FF1F10B50446CC488442A7
:100A600008D10121042000F02DFB0021042000F01A
:100A700029FB46E0C748844208D10121082000F044
:100A800021FB0021082000F01DFB3AE0C24884420F
:100A900008D10121102000F015FB0021102000F0EA
:100AA00011FB2EE0BD48844208D10121202000F036
:100AB00009FB0021202000F005FB22E0B848844219
:100AC00008D10121402000F0FDFA0021402000F073
:100AD000F9FA16E0B348844208D10121802000F0E1
:100AE000F1FA0021802000F0EDFA0AE0AE488442DD
:100AF00007D10121801500F0E5FA0021A01500F0D2
:100B0000E1FA10BD10B50121084600F0DBFA002122
:100B1000012000F0D7FA10BD2DE9F0410246002572
:100B20000026002000230024002791F803C00CF0C9
:100B30000F0591F803C00CF0100CBCF1000F03D0AE
:100B400091F802C04CEA050591F800C0BCF1000F15
:100B500031D0146800202BE04FF0010C0CFA00F3A8
:100B6000B1F800C00CEA03069E4220D183004FF08A
:100B70000F0C0CFA03F7BC4305FA03FC4CEA04041F
:100B800091F803C0BCF1280F06D14FF0010C0CFA0C
:100B900000FCC2F814C00AE091F803C0BCF1480F91
:100BA00005D14FF0010C0CFA00FCC2F810C0401C3B
:100BB0000828D1D31460B1F800C0BCF1FF0F34DDB8
:100BC000546800202EE000F1080C4FF0010808FAEC
:100BD0000CF3B1F800C00CEA03069E4221D1830059
:100BE0004FF00F0C0CFA03F7BC4305FA03FC4CEA78
:100BF000040491F803C0BCF1280F05D100F1080CE2
:100C000008FA0CF8C2F8148091F803C0BCF1480F40
:100C100007D100F1080C4FF0010808FA0CF8C2F8EF
:100C20001080401C0828CED35460BDE8F0814FF6F8
:100C3000FF710180022181700421C170704702465A
:100C4000002093680B400BB1012000E000207047AA
:100C50000146886880B2704702460020D3680B4086
:100C60000BB1012000E0002070470146C86880B247
:100C7000704701617047416170470AB1016100E04E
:100C800041617047C16070474FF480320A4382610E
:100C90008161826182698269704702460020434B0C
:100CA00018684FF68073184040EA021008433F4B23
:100CB000186070473E49C8617047F0B50A46002386
:100CC00000240021002500F00046B6F1004F02D1BB
:100CD000364EF16901E0354E7168C0F3034583B2C9
:100CE00000F44016B6F5401F08D121F070612F4E78
:100CF000766826F070662D4F7E6012E000F4801654
:100D0000B6F5801F06D1032606FA05F4A14341F08B
:100D1000706106E0460D360103FA06F6B14341F074
:100D2000706122B1460D360103FA06F6314300F038
:100D30000046B6F1004F02D11C4EF16101E01B4E9E
:100D40007160F0BD30B500228B071C0F0F2303FA32
:100D500004F2164B08338C1053F824309343134C91
:100D600008348D1044F8253023468C1053F8243075
:100D70008C07240F00FA04F423430C4C08348D1024
:100D800044F8253030BD0A49DC3108607047000066
:100D900000080140000C0140001001400014014017
:100DA00000180140001C01400020014000000140EB
:100DB00000002042DF48006840F00100DD49086083
:100DC00008464068DC490840DA494860084600683F
:100DD000DA490840D74908600846006820F48020B6
:100DE00008600846406820F4FE0048604FF41F0089
:100DF00088607047CF49096821F48031CD4A11607D
:100E00001146096821F480211160B0F5803F03D0BC
:100E1000B0F5802F0ED106E0C649096841F4803153
:100E2000C44A116007E0C349096841F4A021C14ADE
:100E3000116000E000BF00BF704710B501460022FE
:100E4000002300204A11012A02D1BA4C236806E08F
:100E5000022A02D1B74C236A01E0B64C636A01F062
:100E60001F02012494401C400CB1012000E000202E
:100E700010BD38B5002000900024002500BF3120AF
:100E8000FFF7DBFF05460098401C00900098B0F586
:100E9000A06F01D0002DF2D03120FFF7CEFF08B1B6
:100EA000012400E00024204638BD01460020A14A6C
:100EB000106820F0F80040EAC10010607047A049B7
:100EC00008607047024600209A4B586820F47C1056
:100ED00042EA01031843974B5860704798490866E7
:100EE000704701460020934A506820F003000843F1
:100EF000506070478F48406800F00C007047014612
:100F000000208C4A506820F0F00008435060704781
:100F100001460020874A506820F4E0600843506092
:100F2000704701460020834A506820F4605040EA30
:100F3000C1005060704729B17E4A527A02437D4B0E
:100F40005A7204E07B4A527A82437A4B5A72704753
:100F50007B49D8310860704701460020754A5068C7
:100F600020F440400843506070470021714A20320D
:100F70001170704A82F82010012802D004280AD18A
:100F800004E001216B4A2032117005E00521694A15
:100F90002032117000E000BF00BF7047694908604F
:100FA00070476449096A0143624A116270476549A2
:100FB00044390860704730B5002100220024002326
:100FC0005C4D6D6805F00C0121B1042905D008299C
:100FD00023D105E05C4D056022E05B4D05601FE01C
:100FE000544D6D6805F47012524D6D6805F48034EF
:100FF000022505EB92421CB9544D554305600BE0A8
:101000004C4D6D6805F400351DB1504D55430560DC
:1010100002E04D4D5543056002E04B4D056000BFB9
:1010200000BF444D6D6805F0F0010909484D6B5C47
:101030000568DD4045603F4D6D6805F4E061090AD3
:10104000434D6B5C4568DD4085603A4D6D6805F445
:101050006051C90A3E4D6B5C4568DD40C560354D49
:101060006D6805F44041890B3A4D6B5CC568B5FB72
:10107000F3F5056130BD29B12E4A526902432D4B6B
:101080005A6104E02B4A526982432A4B5A617047E5
:1010900029B1284A92690243264B9A6104E0254A05
:1010A00092698243234B9A61704729B1214AD269E0
:1010B0000243204BDA6104E01E4AD26982431D4B91
:1010C000DA61704729B11B4AD2680243194BDA60D2
:1010D00004E0184AD2688243164BDA60704729B19F
:1010E000144A12690243134B1A6104E0114A12694F
:1010F0008243104B1A6170471249403908607047AB
:101100000F49C86470470B49C87170470948406A65
:1011100040F0807007494862704701460020054A48
:1011200092680A400AB1012000E00020704701499E
:1011300088727047001002400000FFF8FFFFF6FEC3
:10114000000042428004424200127A0000093D0041
:10115000140000202400002010B50446FE488442FC
:1011600008D10121C014FFF7ADFF0021E014FFF703
:10117000A9FFC4E0B4F1804F08D101210846FFF770
:10118000AEFF00210120FFF7AAFFB8E0F348844238
:1011900008D101210220FFF7A2FF00210220FFF762
:1011A0009EFFACE0EE48844208D101210420FFF705
:1011B00096FF00210420FFF792FFA0E0E948844257
:1011C00008D101210820FFF78AFF00210820FFF73E
:1011D00086FF94E0E448844208D101211020FFF703
:1011E0007EFF00211020FFF77AFF88E0DF4884426D
:1011F00008D101212020FFF772FF00212020FFF7F6
:101200006EFF7CE0DA48844208D101214014FFF7E8
:1012100059FF00216014FFF755FF70E0D548844264
:1012200009D10121C804FFF74DFF00214FF4002030
:10123000FFF748FF63E0D048844209D10121080547
:10124000FFF740FF00214FF48010FFF73BFF56E00F
:10125000CA48844209D101214805FFF733FF002124
:101260004FF40010FFF72EFF49E0C548844208D133
:1012700001214020FFF733FF00214020FFF72FFF1F
:101280003DE0C048844208D101218020FFF727FFBC
:1012900000218020FFF723FF31E0BB48844208D1C2
:1012A00001218015FFF71BFF0021A015FFF717FF95
:1012B00025E0B648844209D101210804FFF702FF66
:1012C00000214FF48030FFF7FDFE18E0B048844263
:1012D00009D101214804FFF7F5FE00214FF4003049
:1012E000FFF7F0FE0BE0AB48844208D101218804EF
:1012F000FFF7E8FE00214FF48020FFF7E3FE10BD6A
:1013000000220288944B98420ED0994B98420BD001
:10131000B0F1804F08D0914B984205D0904B984245
:1013200002D0904B984204D14FF68F731A404B88ED
:101330001A438D4B984207D08C4B984204D04FF6FD
:10134000FF431A40CB881A4302808B8883850B8821
:101350000385814B98420BD0854B984208D08B4B2C
:10136000984205D08A4B984202D08A4B984201D1CC
:101370000B7A038601238382704770B50024002214
:101380000023058C4FF6FE7635400584028C838859
:10139000048B4FF68F752C40B51E2C400D882C43C6
:1013A000751E2A400D892A434D882A436A4DA8425A
:1013B0000BD06F4DA84208D0744DA84205D0744D93
:1013C000A84202D0734DA84213D14FF6F7752A40B8
:1013D0004D892A434FF6FB752A408D882A434FF6E4
:1013E000FF652B404FF6FF552B408D892B43CD8950
:1013F0002B4383800483CD888586028470BD70B5BD
:10140000002400220023058C4FF6EF76354005843A
:10141000028C8388048B48F6FF752C404FF6FF45FD
:101420002C400D884FF6FF7606EA05252C434FF633
:10143000DF752A400D8906EA05152A434D8806EA1C
:1014400005152A43444DA84202D0494DA8421DD15A
:101450004FF67F752A404D894FF6FF7606EA05154F
:101460002A434FF6BF752A408D8806EA05152A43A0
:101470004FF6FF352B404FF2FF752B408D8906EA62
:1014800085052B43CD8906EA85052B43838004839C
:10149000CD880587028470BD70B50024002200232A
:1014A000058C4FF6FF6635400584028C8388848B5B
:1014B0004FF68F752C404FF6FC752C400D882C4351
:1014C0004FF6FF552A400D894FF6FF7606EA0525AF
:1014D0002A434D8806EA05252A431F4DA84202D01B
:1014E000234DA8421DD14FF2FF752A404D894FF67A
:1014F000FF7606EA05252A434FF6FF352A408D88F8
:1015000006EA05252A434EF6FF752B404DF6FF757A
:101510002B408D8906EA05152B43CD8906EA051572
:101520002B4383808483CD888587028470BD70B50A
:10153000002200230024058C4EF6FF7635400584FA
:10154000038C8488828B48F6FF752A404FF6FF454E
:101550002A400D8820E00000002C014000040040DB
:1015600000080040000C0040001000400014004043
:1015700000340140004C0140005001400054014043
:1015800000180040001C00400020004000400140C6
:1015900000440140004801404FF6FF7606EA052569
:1015A0002A434DF6FF752B400D8906EA05352B437E
:1015B0004D8806EA05352B43FA4DA84202D0FA4D74
:1015C000A84208D14BF6FF752C408D894FF6FF7667
:1015D00006EA85152C4384808283CD88A0F840508C
:1015E000038470BD828B4FF2FF331A408283828B5B
:1015F0004FF6FF7303EA01231A4382837047F0B565
:101600000C461546002200210026078C4EF6FF7C72
:1016100007EA0C070784828B018C4FF6FF7707EAF5
:10162000043640F6FF473A404FF6FF7707EA0527B2
:101630003A434FF6FF7707EA03373A43D94FB842A8
:101640000ED0D94FB8420BD0B0F1804F08D0D74F51
:10165000B84205D0D64FB84202D0D64FB84206D1D4
:101660004DF6FF77394046F48057394305E047F699
:10167000FF57394044F48057394382830184F0BDD9
:10168000828B4FF6F3731A408283828B0A438283E4
:101690007047F0B50C461546002200210026078C45
:1016A0004FF6FF6C07EA0C070784828B018C4FF61C
:1016B000FF7707EA04264FF60C773A404FF6FF779C
:1016C00007EA03172F433A43B64FB8420ED0B64F3E
:1016D000B8420BD0B0F1804F08D0B44FB84205D01B
:1016E000B34FB84202D0B34FB84206D14FF6FF57BE
:1016F000394046F48077394305E04FF2FF573940CF
:1017000044F48077394382830184F0BD028B4FF229
:10171000FF331A400283028B4FF6FF7303EA012363
:101720001A4302837047F0B50C461546002200218B
:101730000026078C4FF6EF7C07EA0C070784028B24
:10174000018C4FF6FF7707EA041640F6FF473A4050
:101750004FF6FF7707EA03373A434FF6FF7707EA7A
:1017600005273A438F4FB8420ED08F4FB8420BD067
:10177000B0F1804F08D08D4FB84205D08C4FB842A1
:1017800002D08C4FB84206D14FF6DF77394046F091
:101790001007394305E04FF65F77394044F01007F2
:1017A000394302830184F0BD028B4FF6F3731A4074
:1017B0000283028B0A4302837047F0B50C4615463C
:1017C00000220021068C4FF6FE773E400684028BF5
:1017D000018C4FF60C7632407E1C06EA03162E432F
:1017E0003243704EB0420ED06F4EB0420BD0B0F1CB
:1017F000804F08D06D4EB04205D06D4EB04202D041
:101800006C4EB04206D14FF6FD76314044F00106F1
:10181000314305E04FF6F576314044F0010631439F
:1018200002830184F0BD70B505460C465D488542D3
:101830000ED05D4885420BD0B5F1804F08D05B4893
:10184000854205D05A48854202D05A48854200D187
:1018500000E000BF208850B92389A288618828460B
:10186000FFF7ABFFE1882846FFF79EFF25E02088C1
:1018700004280AD12389A28861882846FFF753FFEC
:10188000E1882846FFF742FF17E0208808280AD1A0
:101890002389A28861882846FFF7FBFEE188284655
:1018A000FFF7EEFE09E02389A28861882846FFF74A
:1018B000A6FEE1882846FFF795FE70BD2DE9F041B0
:1018C00005460C4600260127608808B9022600E07C
:1018D0000026A088012801D1022700E001272088E6
:1018E000A0B92389A28861882846FFF766FFE188AE
:1018F0002846FFF759FF23893A4631462846FFF725
:1019000012FFE1882846FFF701FF13E02389A28830
:1019100061882846FFF707FFE1882846FFF7F6FEB3
:1019200023893A4631462846FFF747FFE188284693
:10193000FFF73AFFBDE8F0810A884B881A438B888D
:101940001A43CB881A430B891A434B891A438B8954
:101950001A43A0F8442070474FF6FF7181800021A0
:101960000180C18041800172704700210180418067
:101970008180C180018141818181C18170470021C5
:1019800001804180012181800021C1800181704757
:101990000021018041808180C1800181418181815C
:1019A00070470000002C014000340140000400405A
:1019B00000080040000C004021B1028842F0010202
:1019C000028004E002884FF6FE731A4002807047DE
:1019D00031B1B0F8442042F40042A0F8442005E0C0
:1019E000B0F84420C2F30E02A0F8442070471AB1A8
:1019F00083890B43838102E083898B438381704712
:101A00008182704741EA0203A0F8483070471AB15A
:101A100083890B43838102E083898B4383817047F1
:101A200001894FF6F8721140018170470A46002182
:101A300001894FF68F73194011430181704730B50A
:101A400004460D4629462046FFF7F0FF208940F066
:101A50000700208130BD2DE9F04104460D461646B1
:101A60001F46602D06D13B46012231462046FFF736
:101A70005AFE05E03B46012231462046FFF79DFE17
:101A800029462046FFF7D2FF208940F00700208139
:101A9000BDE8F08130B50C4600210189C9B24FF68E
:101AA000FF7505EA0325154325432943018130BD10
:101AB0002DE9F04105460E46174698460024434658
:101AC0003A4631462846FFF7E5FF2C894FF6F87075
:101AD000044044F007044FF68F70044044F0700453
:101AE0002C81BDE8F081F0B504460D4616461F4630
:101AF0003B46324629462046FFF7CCFF208940F47A
:101B000080402081F0BD0185828270470A46002115
:101B100001884FF68F731940114301807047F0B56B
:101B20000C4615461E460021002200230189028B27
:101B3000038C4FF6F877394021434FF6FC473A4083
:101B400040F201173A434FF6DD773B404FF6FF77FF
:101B500007EA06172F433B43018102830384F0BD4C
:101B60000A460021018B4FF68F7319401143018300
:101B700070470A460021018B48F6FF7319404FF663
:101B8000FF7303EA02231943018370470A460021C9
:101B9000818B4FF68F7319401143818370470A463A
:101BA0000021818B48F6FF7319404FF6FF7303EA5B
:101BB000022319438183704721B1028842F08002D9
:101BC000028004E002884FF67F731A40028070475B
:101BD00021B1828842F00402828004E082884FF6BC
:101BE000FB731A408280704721B1828842F008025C
:101BF000828004E082884FF6F7731A408280704733
:101C000021B1828842F00102828004E082884FF68E
:101C1000FE731A40828070470A460021018B4FF6FE
:101C2000F77319401143018370470A460021018B65
:101C30004FF2FF7319404FF6FF7303EA0223194373
:101C4000018370470A460021818B4FF6F7731940D4
:101C50001143818370470A460021818B4FF2FF7345
:101C600019404FF6FF7303EA02231943818370473B
:101C70000A460021018B4FF6FB7319401143018383
:101C800070470A460021018B4FF6FF3319404FF68B
:101C9000FF7303EA02231943018370470A460021B8
:101CA000818B4FF6FB7319401143818370470A46BD
:101CB0000021818B4FF6FF3319404FF6FF7303EA83
:101CC00002231943818370470A460021018B4FF696
:101CD0007F7319401143018370470A460021018B2D
:101CE000C1F30E014FF6FF7303EA02231943018388
:101CF00070470A460021818B4FF67F7319401143CC
:101D0000818370470A460021818BC1F30E014FF693
:101D1000FF7303EA02231943818370470A460021B7
:101D2000018C4FF6FD7319401143018470470A4638
:101D30000021018C4FF6F77319401143018470475D
:101D40000A460021018C4FF6DF7319404FF6FF73EE
:101D500003EA02131943018470470A460021018CEB
:101D60004FF67F7319404FF6FF7303EA02131943CE
:101D7000018470470A460021018C4FF6FF53194039
:101D80004FF6FF7303EA02231943018470470A46A2
:101D90000021018C4FF2FF7319404FF6FF7303EAE5
:101DA00002231943018470470A460021018C4DF635
:101DB000FF7319404FF6FF7303EA0233194301849E
:101DC000704730B5002301248C40A3B2048C9C439F
:101DD0000484048C02FA01F5ADB22C43048430BDB6
:101DE00030B5002304248C40A3B2048C9C430484AB
:101DF000048C02FA01F5ADB22C43048430BD70B5F9
:101E00000346002000241846183001258D40ACB24E
:101E10001D8CA5431D8409B1082909D100EB61007F
:101E2000056825F0700505600568154305600EE03E
:101E30000D1FC5F34E052844056825F4E0450560EF
:101E400005684FF6FF7606EA02263543056070BD49
:101E500021B1028842F00202028004E002884FF6BB
:101E6000FD731A400280704721B1028842F00402DB
:101E7000028004E002884FF6FB731A40028070472C
:101E800021B1828842F08002828004E082884FF68D
:101E90007F731A408280704702884FF6F7731A40AA
:101EA000028002880A430280704782884FF68F734F
:101EB0001A40828082880A438280704702894FF6E6
:101EC000F8731A40028102890A430281704702892D
:101ED0004FF67F731A40028102890A4302817047DC
:101EE000818470478185704781867047018770477C
:101EF00081877047A0F84010704702884FF6FF4373
:101F00001A40028002880A43028070470146888E88
:101F100070470146088F70470146888F7047014619
:101F2000B1F8400070470146888C70470146088D23
:101F3000704702460020138A0B400BB1012000E0DD
:101F400000207047CA430282704730B50246002025
:101F500000230024158A05EA0103958905EA010496
:101F600013B10CB1012000E0002030BDCA43028251
:101F70007047000010B50446FB48844209D1012196
:101F80008803FFF79FF800214FF48040FFF79AF88D
:101F900032E0F648844209D101214804FFF79FF856
:101FA00000214FF40030FFF79AF825E0F048844212
:101FB00009D101218804FFF792F800214FF4802015
:101FC000FFF78DF818E0EB48844209D10121C804DD
:101FD000FFF785F800214FF40020FFF780F80BE0B1
:101FE000E548844208D101210805FFF778F800216F
:101FF0004FF48010FFF773F810BD2DE9F04786B05D
:1020000005460E460024A24600BFA1460027B0891F
:1020100000B100BF2F462C8A4CF6FF700440F088B8
:1020200004432C82AC894EF6F3100440B088318909
:102030000843718908430443AC81AC8A4FF6FF40E2
:102040000440B0890443AC8201A8FEF7B4FFC6483F
:10205000874202D1DDF810A001E0DDF80CA0A889CC
:1020600000F4004040B10AEBCA0000EB0A103168EE
:102070004900B0FBF1F807E00AEBCA0000EB0A10D8
:1020800031688900B0FBF1F86420B8FBF0F004017E
:102090002009642101FB1089A88900F4004040B1A7
:1020A000322000EBC900B0FBF1F000F00700044360
:1020B00008E0322000EB09106421B0FBF1F000F0E1
:1020C0000F0004432C8106B0BDE8F0874FF4165191
:1020D000016000218180C18001810C2141810021AA
:1020E0008181704710B502460020108A4FF2FF032D
:1020F00018400B884C8823438C882343CC88234387
:102100001843108210BD0021018041808180C18070
:10211000704721B1828942F40052828104E08289B1
:102120004DF6FF731A4082817047F0B503460024D4
:1021300000260025002040F66A17B94200D100BFF2
:102140001846C1F3421401F01F06012707FA06F5ED
:10215000012C01D10C3004E0022C01D1103000E040
:1021600014301AB107682F43076002E00768AF43D5
:102170000760F0BD1AB1838A0B43838202E0838A31
:102180008B4383827047028A4FF6F0731A400282B3
:10219000028A0A430282704782894FF2FF731A4013
:1021A000828182890A438281704721B1828942F00B
:1021B0000202828104E082894FF6FD731A40828117
:1021C0007047028A4FF6DF731A400282028A0A437E
:1021D0000282704721B1028A42F48042028204E006
:1021E000028A4BF6FF731A4002827047C1F308025D
:1021F0008280704701468888C0F308007047818953
:1022000041F0010181817047028BD2B20283028BBF
:1022100042EA012202837047028B02F47F4202836A
:10222000028B0A430283704721B1828A42F0200266
:10223000828204E0828A4FF6DF731A4082827047FE
:1022400021B1828A42F01002828204E0828A4FF633
:10225000EF731A408282704721B1828A42F00802ED
:10226000828204E0828A4FF6F7731A4082827047B6
:1022700021B1828942F40042828103E08289C2F363
:102280000E028281704721B1828A42F4006282820A
:1022900004E0828A4FF2FF731A4082827047828A7A
:1022A0004FF6FB731A408282828A0A438282704709
:1022B00021B1828A42F00202828204E0828A4FF6D1
:1022C000FD731A408282704702460020B1F5007FFC
:1022D00000D100BF13880B400BB1012000E00020AB
:1022E000704701F40072B2F5007F00D100BFCA430D
:1022F0000280704770B502460024002300250020AC
:1023000040F66A16B14200D100BFC1F3421501F098
:102310001F03012606FA03F3012D02D196893340EB
:1023200006E0022D02D1168A334001E0968A33403E
:102330000C12012606FA04F41688344013B10CB1CD
:10234000012000E0002070BD10B50022002340F6FF
:102350006A14A14200D100BF0A1201249440A3B222
:10236000DC43048010BD0000003801400044004000
:1023700000480040004C00400050004070B5CE487E
:102380000078012800D170BDCC480079002842D1E6
:102390000120CA4908710846407920B1012809D0B6
:1023A000022837D11EE0C54B9A799979987900F0C7
:1023B000EBF92FE0C14A117AD07900F0CFFA044648
:1023C000BE4A917A507A00F0C9FA0546BB4A117BA1
:1023D000D07A00F0C3FA064632462946204600F07D
:1023E000D3F917E0B54A917D507D00F0B7FA044665
:1023F000B24A117ED07D00F0B1FA0546AF4A917E17
:10240000507E00F0ABFA064632462946204600F0E0
:10241000BBF900BF07E00020A8490871002211465F
:10242000104600F0B1F900BFADE710B500F086FD31
:1024300010BD704708B500209F4908700022114662
:10244000104600F0A1F900221146FF2000F09CF98F
:102450000020009002E00098401C00900098B0F529
:10246000800FF8D30022FF21104600F08DF90020E4
:10247000009002E00098401C00900098B0F5800F9A
:10248000F8D3FF220021084600F07EF900200090DA
:1024900002E00098401C00900098B0F5800FF8D33F
:1024A000FF221146104600F06FF9012082490870A2
:1024B00000F065FD0020009002E00098401C0090B4
:1024C0000098B0F5800FF8D300221146104600F0B6
:1024D0005BF908BD08B501210420FEF7D9FD0320F2
:1024E0008DF8020048208DF803004FF40060ADF82D
:1024F000000069467248FEF70FFB4FF48050ADF8BC
:10250000000069466E48FEF707FB20216D4801F088
:10251000A3FB6D486B49C8606C496A48C1616C484F
:10252000684988606B496748816108BD10B500241F
:102530004FF400616248FEF782FB08B944F00104E1
:102540004FF480515E48FEF77AFB08B944F002046C
:10255000204610BD70B5044601F078F90546A54245
:1025600001D32D1B01E0E0430544284670BD70B542
:10257000FFF7DCFF0646002499E0524800EB041008
:10258000007820B1102813D040282BD11BE046FA48
:1025900004F000F0010050B110204A4901EB041191
:1025A000087001F053F9474901EB0411486019E044
:1025B00046FA04F000F0010020B92020414901EB67
:1025C000041108700EE046FA04F000F0010040B972
:1025D00000203C4901EB041148603A4901EB041129
:1025E000087000BF00BF374800EB041000781028C7
:1025F00005D0344800EB04100078402820D1314940
:1026000001EB04114868FFF7A5FF054640F6B83016
:1026100085424AD301F01AF92A4901EB04114860B6
:102620004020284901EB04110870264800EB0410F3
:10263000C06858B3234901EB0411C868804734E0EF
:10264000204800EB0410007820282ED11D4901EB12
:1026500004114868FFF77EFF05460020194901EB89
:1026600004114860174901EB04110870322D0ED394
:1026700040F6B83085420AD2124800EB0410806858
:1026800020B1104901EB0411886880470DE040F645
:10269000B830854209D30B4800EB0410C06820B164
:1026A000084901EB0411C8688047601CC4B2022CC1
:1026B000FFF663AF70BD000028000020EC00002092
:1026C000000801405C0000202B240008352400088D
:1026D0007D2300083324000808B501210820FEF7F7
:1026E000D7FC10208DF803004FF47870ADF800008F
:1026F00003208DF8020069469248FEF70DFA40214A
:102700009048FEF7B6FA20218E48FEF7B2FA4FF451
:1027100080718C48FEF7ADFA80218A48FEF7A9FA4D
:102720004FF400718748FEF7A4FA08BD70B505465E
:102730000C46012D02D0022D18D10BE0012C04D142
:1027400040218048FEF797FA03E040217D48FEF7DC
:1027500090FA17E0012C04D120217A48FEF78BFA79
:1027600003E020217748FEF784FA0BE0012C04D126
:1027700040217448FEF77FFA03E040217148FEF7DC
:1027800078FA00BF00BF70BD70B506460C4615460E
:1027900000214FF08040FFF70FF900206A490860E0
:1027A0006A4908706A4908706A490870002E07DD96
:1027B000664806704FF480716248FEF75CFA04E0E8
:1027C0004FF480715F48FEF754FA002C06DD604834
:1027D000047080215B48FEF74EFA03E080215948DF
:1027E000FEF747FA002D07DD5A4805704FF40071D7
:1027F0005448FEF740FA04E04FF400715148FEF7E8
:1028000038FA01218807FFF7D7F870BD10B54F4897
:10281000007800280ADD4C4800684C490978884255
:1028200004D14FF480714748FEF723FA48480078F6
:10283000002809DD4448006845490978884203D1E9
:1028400080214048FEF715FA4248007800280ADD4A
:102850003D4800683F490978884204D14FF400712F
:102860003848FEF706FA38480068B0F5877F1CD371
:1028700000203549086035480078002804DD4FF411
:1028800080713048FEF7F7F931480078002803DD01
:1028900080212C48FEF7EFF92E480078002804DD4F
:1028A0004FF400712748FEF7E6F910BD70B52A48CD
:1028B000007928B9002211461046FFF765FF3FE076
:1028C0002548407920B1012809D0022837D11EE0DF
:1028D000214B9A7999799879FFF756FF2FE01E4A94
:1028E000117AD07900F03AF8C4B21B4A917A507A42
:1028F00000F034F8C5B2184A117BD07A00F02EF8F7
:10290000C6B2324629462046FFF73EFF17E0124A7C
:10291000917D507D00F022F8C4B20F4A117ED07D27
:1029200000F01CF8C5B20C4A917E507E00F016F8FB
:10293000C6B2324629462046FFF726FF00BF00BF39
:1029400070BD0000000C0140400000202900002064
:102950002A0000202B000020EC0000200246302A34
:1029600005DB392A03DCA2F13003DAB20EE0412A9A
:1029700005DB462A03DCA2F13703DAB206E0612A5E
:1029800004DB662A02DCA2F15703DAB202F00F0080
:102990000001302905DB392903DCA1F13003D9B26C
:1029A0000EE0412905DB462903DCA1F15703D9B22A
:1029B00006E0612904DB662902DCA1F15703D9B2E4
:1029C00001F00F03184370470146002209B90020A7
:1029D0007047002200E0521C11F8013B002BFAD195
:1029E0001046F5E730B503460C4619460BB90020F2
:1029F00030BD01E001F8014B101EA2F10105AAB2A1
:102A0000F8D11846F4E7F0B505460E4613462A46B7
:102A1000344605B10EB90020F0BDA24202D9E0183B
:102A2000904208D2002103E0605C5054481C81B2FF
:102A30009942F9DB07E0194603E0481E275C17546A
:102A400081B20029F9DC2846E6E70246104603E099
:102A500011F8013B02F8013B0B78002BF8D1137001
:102A60007047024601E0521C491C107828B10878D2
:102A700018B110780B789842F5D010780B78C01AFE
:102A80007047020E0A70020C4A70020A8A70C870FF
:102A9000704701460020087800024A78104300027F
:102AA0008A7810430002CA78104370472DE9F0413C
:102AB0000646884614460027FB480078012801D1C5
:102AC000BDE8F0813146384600F07EFB0746002124
:102AD000384600F079FB07462546E01704EB106006
:102AE000C0F30721384600F06FFB0746E01704EB00
:102AF00010600012A4EB0020C1B2384600F064FB65
:102B0000074622464146384600F064FB07463A46EF
:102B10000321072000F08FFB0120D1E770B50446A8
:102B20000D460026E0480078012800D170BD2146FE
:102B3000304600F049FB06460121304600F044FBD8
:102B400006460021304600F03FFB06460121304694
:102B500000F03AFB06462DB90021304600F034FB68
:102B6000064604E00121304600F02EFB06463246C0
:102B70000321072000F05FFB0120D7E770B5054671
:102B80000C460026C8480078012800D170BD2946AF
:102B9000304600F019FB06460221304600F014FBD7
:102BA00006460021304600F00FFB06460421304661
:102BB00000F00AFB0646210E304600F005FB0646F3
:102BC000C4F30741304600F0FFFA0646C4F307217C
:102BD000304600F0F9FA0646E1B2304600F0F4FA69
:102BE000064632460321072000F025FB0120CDE7F1
:102BF0002DE9F0410646884614460027AA48007889
:102C0000012801D1BDE8F0813146384600F0DCFAF8
:102C100007460321384600F0D7FA07462546E01755
:102C200004EB1060C0F30721384600F0CDFA0746E8
:102C3000E01704EB10600012A4EB0020C1B238468C
:102C400000F0C2FA074622464146384600F0C2FA72
:102C500007463A460321072000F0EDFA0120D1E7AC
:102C600070B504460E4600258F480078012800D133
:102C700070BD2146284600F0A7FA054604212846E3
:102C800000F0A2FA05460021284600F09DFA05460C
:102C90000121284600F098FA05463146284600F002
:102CA00093FA05462A460321072000F0C4FA0120C2
:102CB000DEE770B505460C4600267B480078012803
:102CC00000D170BD2946304600F07EFA0646052147
:102CD000304600F079FA06460021304600F074FADA
:102CE000064644F0FF00FF280AD10121304600F0DB
:102CF0006BFA0646E1B2304600F066FA064632E06C
:102D00004FF6FF7020434FF6FF71884210D1022129
:102D1000304600F059FA0646C4F30721304600F069
:102D200053FA0646E1B2304600F04EFA06461AE083
:102D30000421304600F048FA0646210E304600F0E5
:102D400043FA0646C4F30741304600F03DFA064612
:102D5000C4F30721304600F037FA0646E1B23046A8
:102D600000F032FA064632460321072000F063FAEB
:102D70000120A6E702461078704702461078704797
:102D800010B503460C461846FFF783FE10BD4749B1
:102D90000968474A1268891A01291CD04449096800
:102DA000424A1268914206D9414909683F4A12686D
:102DB000891A17290FD23E490A683E498A4202D32E
:102DC00017393B4A11603A4909680870384909685F
:102DD000491C374A1160704770B50024002509E08E
:102DE00000F06CFB34490A880988491C324B198071
:102DF00032498854304800881F2803D200F054FB21
:102E00000028EDDC2C480088072800DA70BD71E04E
:102E10002A48005D552802D0601C84B26AE0274928
:102E2000601C085CAA2802D0601C84B262E02349BE
:102E3000A01C085C10B1A01C84B25BE01F49201DDF
:102E4000085C4FF6FF7101EA00251C49601D085C13
:102E5000C01D284485B2262D02D9E01C84B249E069
:102E600015480088001BA84200DA48E06A1E91B2AB
:102E7000124A101900F0BFF96119491E0F4A515C3E
:102E8000884231D06A1E91B20C4A101900F0B3F991
:102E900006466019401E09490A5C314608A000F048
:102EA0006FFEE01C84B225E03800002034000020D2
:102EB00030000020B20000202C0000207C00002008
:102EC000637263206572726F7220286372633A3096
:102ED000782558202062757420646174613A3078D6
:102EE0002558290D0A000000204600F074FA6019E8
:102EF00084B200BF25480088001B072888DA00BF7D
:102F000022480088001B21490880084600880028C4
:102F100006DD1F4801191D4802881D48FFF773FD93
:102F200000BF73E71B481C4908601C490860FF206C
:102F30001B49087070471B480078704710B5002087
:102F40001849087000220321042000F074F910BD14
:102F500015480078704770B50446002500201249D6
:102F600008702146284600F02FF9C5B22A460321F1
:102F7000052000F060F970BD09480078704710B571
:102F8000002203210E2000F056F910BD2C00002075
:102F90007C0000209B000020300000203400002036
:102FA0003B000020390000203A00002010B5044604
:102FB000204600F0CEFD10BD10B500211420FFF713
:102FC000ADFD00211520FFF74BFE00211620FFF775
:102FD000D5FD002211461820FFF70AFE00221146F7
:102FE0001920FFF705FE00211A20FFF7C7FD002278
:102FF00011461B20FFF7FCFD002211461C20FFF7A5
:10300000F7FD10BD2DE9F04104460D462946204646
:10301000FFF7B0FE074639461420FFF77FFD06464E
:10302000012E01D1BDE8F0810020FBE72DE9F04140
:1030300006460F4639463046FFF79FFE054635B136
:10304000012D05D0022D04D0032D04D102E003E0B0
:1030500002E001E000E000BF00BF29461520FFF7B5
:10306000FFFD0446012C01D1BDE8F0810020FBE703
:103070002DE9F04104460D4629462046FFF780FE23
:10308000074639461620FFF779FD0646012E01D185
:10309000BDE8F0810020FBE770B504460D462A46E6
:1030A00021461820FFF7A4FD0646012E00D170BD71
:1030B0000020FCE770B504460D462A46214619203B
:1030C000FFF796FD0646012E00D170BD0020FCE7FB
:1030D0002DE9F04104460D4629462046FFF750FEF3
:1030E000074639461A20FFF749FD0646012E01D151
:1030F000BDE8F0810020FBE770B504460D462A4686
:1031000021461B20FFF774FD0646012E00D170BD3D
:103110000020FCE770B504460D462A4621461C20D7
:10312000FFF766FD0646012E00D170BD0020FCE7CA
:103130002DE9F04105460E461746A5F11400092871
:1031400036D2DFE800F0050B1135171D23292F00BB
:1031500039463046FFF756FF04462AE039463046E6
:10316000FFF764FF044624E039463046FFF780FF4E
:1031700004461EE039463046FFF78EFF044618E04D
:1031800039463046FFF796FF044612E0394630468E
:10319000FFF79EFF04460CE039463046FFF7ACFFD0
:1031A000044606E039463046FFF7B4FF044600E027
:1031B00000BF00BF2046BDE8F0810820704708B975
:1031C00001B100BF70470000C84B1A181170431CB2
:1031D00098B270472DE9F04104460E461546C348A3
:1031E00007192A4631463846FFF70DFC601984B2AC
:1031F0002046BDE8F08130B502460020002305E0FE
:1032000012F8015B2C18E0B25C1CA3B28B42F7DB16
:1032100030BD70B504460D4604B105B970BD03E07C
:103220002078FFF7C3FE641C281EA5F101018DB2B2
:10323000F6D100BFF2E72DE9F04105460E461446EF
:1032400000275520A949891F0870AA204870084600
:103250008670C570201208714C71E01D84B2601E2A
:1032600081B2A248801FFFF7C6FF0746601E9F4934
:10327000891F0F5421469D48801FFFF7CAFFBDE8F4
:10328000F08110B500249A48007840B9002120460A
:10329000FFF79AFFC4B201209549087004E00121AC
:1032A0002046FFF791FFC4B2224603210020FFF71A
:1032B000C2FF10BD3EB50024002000900190029096
:1032C0008CA0FFF781FB85B22A468AA12046FFF732
:1032D00081FFC4B289A0FFF777FB85B22A4687A198
:1032E0002046FFF777FFC4B289A0FFF76DFB85B2D8
:1032F0002A4687A12046FFF76DFFC4B286A0FFF7DC
:1033000063FB85B22A4684A12046FFF763FFC4B25F
:1033100083A0FFF759FB85B22A4681A12046FFF71B
:1033200059FFC4B280A0FFF74FFB85B22A467EA1A9
:103330002046FFF74FFFC4B27CA0FFF745FB85B2E4
:103340002A467AA12046FFF745FFC4B22246032150
:103350000120FFF770FF3EBD10B500242246032177
:103360000220FFF768FF10BD70B50546FFF725FF87
:103370000646002407E06E4810F81400A84200D169
:1033800003E0601CC4B2B442F5DB00BF204670BD50
:103390002DE9F0470446267894F80180A0784FF68E
:1033A000FF7101EA0025E078284485B23046FFF736
:1033B000DBFF07465E4800EB47004078404502D0FF
:1033C0000020BDE8F0872A46211D3046FFF7B0FEF9
:1033D00081464846F5E72DE9F05F04465549E01C73
:1033E00011F80080B8F10F0F5AD2DFE808F0080B8F
:1033F0000E111C2024594A59595959594D00FFF7AB
:1034000040FF4EE0FFF756FF4BE0FFF7A5FF48E017
:103410004849A01D085C484908700022032108465D
:10342000FFF709FF3DE001204449087039E0012021
:103430004349087035E03F49601D095C3D4A201D45
:10344000105C41EA0027002518E0A01D2844801CDC
:103450003849085C4FF6FF7101EA0026A01D284498
:10346000C01C3449085C304486B22144891D481987
:10347000FFF78EFF8346301D284485B2BD42E4DB52
:103480000FE0FFF799FD0CE02A49A01D11F800900C
:10349000E01D11F800A051464846FFF790FE00E0FD
:1034A00000BF00BFBDE8F09F2648006826490968B4
:1034B000884201D0012070470020FCE722490968BA
:1034C000204A126891420FD01F490A681F498A4258
:1034D00002D317391C4A11601B49096808781A4938
:1034E0000968491C184A116070470000B8000020A4
:1034F0003C0000207B2270223A2200006138797261
:1035000068677A6A33307961656473370000000058
:10351000222C2276223A2200312E302E300000005A
:10352000222C226D223A0000320000007D000000B3
:10353000224800087C0000203B00002039000020C9
:103540003A0000203000002034000020B2000020AB
:1035500000BF5248006800F4E06051490843001D74
:103560004E490860BFF34F8F00BF00BFFEE710B5A4
:1035700000214FF00060FCF75AFF4FF4E060FCF7C9
:103580001FFF10BD10B501210846FDF774FD012194
:103590000846FDF77DFD01214248FDF78EFB10BD79
:1035A00010B54FF4165000F0F5F94FF4165000F036
:1035B00053FA00F04EF940F2CF21632000F0A9F950
:1035C000FEF788FFFFF788F810BD10B5FFF7D4FCB1
:1035D000044634B1012C13D0022C22D0032C2AD162
:1035E00024E000F093F900F0010020B90121084621
:1035F000FFF79CF803E000210120FFF797F81FE098
:1036000000F084F920B901210846FFF78FF807E0A0
:1036100000F07CF9062803D100210120FFF786F88D
:103620000EE000210120FFF781F809E001210846A2
:10363000FFF77CF804E000210120FFF777F800BFD6
:1036400000BF10BD24221849184800F0C8F81748D8
:10365000006818B915480068401C68B1124800F0AD
:10366000ADF82421114800F0F7FAFF200F498871C6
:1036700024220D4800F084F8FFF784FFFFF777FF5E
:10368000FFF78EFFFFF74EFCFFF710F905E0FFF79D
:10369000A3FBFEF76CFFFFF798FFF8E70CED00E0E7
:1036A0000000FA050002300000FC0008EC000020D9
:1036B000704700BFFEE700BFFEE700BFFEE700BFA8
:1036C000FEE770477047704770472DE9F0410446A8
:1036D0000F46154605F0030020B105F00300C0F1C8
:1036E0000400054413E014F8016B14F8011B46EACA
:1036F000012614F8011B46EA014614F8011B46EAAC
:10370000016631463846FCF7FDFF3F1D2D1F002D99
:10371000E9D10120BDE8F08130B503460C4602F046
:10372000030020B102F00300C0F10400024423E0D2
:1037300021681878CDB2A84201D0002030BD581CB5
:1037400003460078C1F30725A84201D00020F5E721
:10375000581C03460078C1F30745A84201D0002059
:10376000ECE7581C03460578080E854201D000207E
:10377000E4E7241D121F5B1C002AD9D10120DDE7DC
:1037800070B504460D461646FCF7A7FE32462146A4
:103790002846FFF79AFF18B9FCF7ABFE002070BD72
:1037A000324621462846FFF7B7FF18B9FCF7A1FEBD
:1037B0000020F4E7FCF79DFE0120F0E710B5044679
:1037C000FCF78BFE2046FCF7CDFE042803D0FCF767
:1037D00090FE002010BDFCF78CFE0120FAE730B50A
:1037E00003460D46002119E02C6803F8014B491CE3
:1037F000914200D314E0200A03F8010B491C9142C6
:1038000000D30DE0200C03F8010B491C914200D3BA
:1038100006E0200E03F8010B491C2D1D9142E3D355
:1038200000BF012030BD000010B501218807FEF760
:103830008CFB50B101218807FEF798FB51480068C6
:10384000401C50490860FEF7E1FF10BD4E4800687B
:1038500070471FB501210846FDF727FC4FF0804057
:10386000FDF77AFC2320ADF808006320ADF80400D2
:103870000020ADF80A00ADF8060001A94FF0804025
:10388000FDF73EFD01218807FEF75CFB0122114692
:103890009007FEF7ACF81C208DF8000000208DF892
:1038A000010003208DF8020001208DF80300684616
:1038B000FCF78BFD00203349086000214FF0804069
:1038C000FEF77AF81FBD10B501213048FEF73DFB29
:1038D000D8B101212D48FEF749FB2B480068401C58
:1038E0002949086008460068FA21B0FBF1F201FBA3
:1038F000120050B926480068401C25490860084657
:1039000000680C2801D10020086010BD2048006824
:1039100070477FB505460C4601210220FDF7C5FB27
:103920001A48FDF719FCADF80850ADF80440002026
:10393000ADF80A00ADF8060001A91448FDF7E0FC57
:1039400001211248FEF7FEFA012211460F48FEF748
:103950004EF81D208DF8000000208DF80100042095
:103960008DF8020001208DF803006846FCF72DFD5C
:103970000020054908600649086001210348FEF758
:103980001BF87FBD400000204400002000040040E0
:103990004800002010B586B00446B4F5E13F02D9D6
:1039A000002006B010BD01210420FDF771FB0121AC
:1039B0008803FDF76DFB4FF40070ADF8040018208C
:1039C0008DF8070003208DF8060001A96848FDF76F
:1039D000A3F84FF48060ADF8040004208DF80700D0
:1039E00003208DF8060001A96148FDF795F80294BF
:1039F0000020ADF80C00ADF80E00ADF81000ADF8E9
:103A000014000C20ADF8120002A95A48FEF7F5FA8E
:103A1000012240F225515748FEF787FB002240F271
:103A200027715448FEF781FB40215248FEF759FCAC
:103A300025208DF8000000208DF8010001208DF870
:103A400002008DF803006846FCF7BFFC01214948DD
:103A5000FEF75FFB0120A4E710B586B00446B4F57D
:103A6000E13F02D9002006B010BD01210820FDF77A
:103A70000FFB01218804FDF718FB4FF48060ADF8BF
:103A8000040018208DF8070003208DF8060001A916
:103A90003948FDF741F84FF40060ADF80400042008
:103AA0008DF8070003208DF8060001A93248FDF7C4
:103AB00033F802940020ADF80C00ADF80E00ADF81C
:103AC0001000ADF814000C20ADF8120002A92B482C
:103AD000FEF793FA012240F225512848FEF725FB14
:103AE000002240F227712548FEF71FFB40212348A2
:103AF000FEF7F7FB27208DF8000000208DF801006D
:103B00008DF8020001208DF803006846FCF75DFC8B
:103B100001211A48FEF7FDFA0120A4E710B540F292
:103B200025511448FEF7E6FB18B11248FEF762FB78
:103B3000C4B210BD10B540F225511048FEF7DAFBB3
:103B400030B10E48FEF756FBC4B22046FFF71FF90E
:103B500010BD10B5044621460848FEF747FB00BFDC
:103B600040210648FEF7B0FB0028F9D010BD000048
:103B70000008014000380140000C014000480040AE
:103B80000FB4044910B503AA029800F0E9F810BC7C
:103B90005DF814FB640100202DE9F0410E46044657
:103BA000002020622046E168884730B3252805D0F0
:103BB000D4E901219047206A401CF2E7E1682046E1
:103BC00000278847050018D0A5F14100192802D820
:103BD00020354FF400673246294620462760FCF71F
:103BE000BFFA40B1012804D0F61D26F007060836BA
:103BF000D8E7361DD6E72846DAE7206ABDE8F08127
:103C000070B504460D4621461068AFF30080218848
:103C1000090502D50F4A7A4402E00E4A7A440E3270
:103C2000002104F1240305E000F00F060009965D71
:103C30005E54491C0028F7D120780023000704D5E2
:103C4000702D02D009B1022311322046BDE8704028
:103C500000F02CB8180C00004FF0000200B513461D
:103C600094469646203922BFA0E80C50A0E80C509C
:103C7000B1F12001BFF4F7AF090728BFA0E80C504D
:103C800048BF0CC05DF804EB890028BF40F8042B46
:103C900008BF704748BF20F8022B11F0804F18BFB3
:103CA00000F8012B70477047704770472DE9F047C7
:103CB0000D4699469246044600F12408016888069C
:103CC00004D5E06921F01001216000E00120A84244
:103CD00001DD471B00E00027A1697A1902EB09000A
:103CE000081AA0612078C00602D42046AFF30080F5
:103CF000002608E0D4E901211AF806009047206A5E
:103D0000401C761C20624E45F4DB2078C0060AD5A4
:103D10002046AFF3008006E0D4E90121302090472F
:103D2000206A401C2062381EA7F10107F4DC07E07E
:103D3000D4E9012118F805009047206A401C206250
:103D4000281EA5F10105F3DC2046AFF300802078A2
:103D5000000602D50220BDE8F0870120FBE7000045
:103D6000074B70B50D467B4400F011F80446284619
:103D700000F020F810B14FF0FF3070BD204670BD4C
:103D80009F0A000001694A1C02610878704700B56B
:103D90008FB0CDE901310021059105497944CDE984
:103DA000031011466846FFF7F7FE0FB000BD000094
:103DB000E5FFFFFF007B00F08000704710B5424830
:103DC0005421FFF749FF41485421FFF745FF404880
:103DD0005421FFF741FF3F493B483C4A3F4B0860B5
:103DE0003D490A603A491960531C0365481C106537
:103DF000012008653B48344A39A1784400F008FAAC
:103E000020B9384878440A3800F0A7FA37482F4AD2
:103E100035A1784400F0FCF920B9344878440A38D8
:103E200000F09BFA32482A4A2FA1784400F0F0F9BA
:103E300020B92F4878440A3800F08FFA40232248EE
:103E4000DC000021224600F0BFF920B1254878446B
:103E5000543800F082FA1D4822464023002100F029
:103E6000B3F920B121487844543800F076FA184864
:103E700022461023002100F0A7F9002806D01C4894
:103E80007844BDE81040563800F067BA10BD1048BD
:103E900070B5006D20F001040B4800F02FFA0B48BC
:103EA00000F02CFA0A4800F029FA09E0206D20F011
:103EB0000105204600F022FA204600F073F82C4657
:103EC000002CF3D170BD000010010020640100201F
:103ED000B8010020500000205400002058000020AD
:103EE000720000005C0A000077000000480A000031
:103EF000340A00000EB5CDE9000100F0C9FB0290C4
:103F000069460120ABBE0EBD08B56946009002208F
:103F1000ABBE08BD1FB58DE8070069460520ABBEE6
:103F200004B010BD1FB58DE80F0069460620ABBE7A
:103F3000F6E708B5694600900920ABBE08BD1CB580
:103F4000CDE9000169460A20ABBE1CBD704708B52B
:103F5000694600900C20ABBE08BD754600F004FA1F
:103F6000AE4605006946534620F00700854618B066
:103F700020B5FCF713FABDE820404FF000064FF0E3
:103F800000074FF000084FF0000B21F00701AC468E
:103F9000ACE8C009ACE8C009ACE8C009ACE8C009AD
:103FA0008D46704770B50446051F00F0E3F90068C0
:103FB000002C14BF446870BD002C18BFAC423CBF3D
:103FC00020466468F8D301680A18AA4218BF456001
:103FD00003D12A6805461144016028684119A142AD
:103FE0001CBF6C6070BD616869602168084428600E
:103FF00070BD2DE9F04705460C46C86820F4201036
:1040000040F48000C860800602D5084600F0FFFA40
:10401000E06841F282014FF0FF390140022903D0EC
:10402000204600F09DFAB5E000F42041B1F5004FC4
:104030000FD1C00306D56168E06A884200D80846FF
:10404000606006E02069E06260606069FFF77FFF02
:10405000A061A0680022EEB200280DDAE1688B05AD
:104060000AD4C043A06041F490302260E0606068F0
:10407000411C61600670A5E0E0689046226040F453
:104080000050E060206968BB6069FFF752FF0127BC
:1040900004F12405A0B1A08910F4407F08D0E069A4
:1040A00000F0B3F9206118B1E06840F4006016E058
:1040B000E7612561E06820F4407040F480600EE024
:1040C000E06900F0A2F900282061F1D0E06840F436
:1040D000006010F4407FE06002D140F48070E06046
:1040E00020696060E06825696FF0010AC1051FD58D
:1040F0006168E06A884200D80846411B04D0224625
:10410000284600F037FAF0BBE068010203D5E5620B
:10411000C4E9015854E0691CE1626160E16940F45E
:104120008030491EC4E9021030462E70BDE8F08789
:10413000010202D500F480320AE06068411C61602F
:104140000670E0680A2E40F48030E06006D000225D
:10415000E16A6068814203D90B4602E00122F7E779
:104160000346A7895B1B7F0503D4E7699F4200DDF7
:10417000E2B1814200D80146E5620F1AC4E9015854
:10418000002B09DD00E005E022461946284600F034
:10419000F1F908B14846C9E747B1A069E562656031
:1041A000C01BA061E06840F01000E060E068000221
:1041B00008D56168A069E562491B08446560A06193
:1041C0005046B3E73046B1E770B5C468A50713D0D1
:1041D000650211D4B2F5807F09D0B2F5007F06D018
:1041E000B2F5806F08D1012300F1240106E05D1EC5
:1041F0006FF07F46B54201D3012070BD0161C361FC
:10420000416024F470611143C160002070BD000062
:104210002DE9F0410C4607461646104600F06EF8B0
:104220002078611C61280AD0722802D077283CD1FE
:1042300002E00125002405E00225042402E0082410
:1042400048F2020511F8010B2B2806D0622809D08C
:1042500011F8010C74280AD00BE045F0030544F076
:104260000204EFE745F0040544F00104EAE744F0F6
:10427000100438462146FFF73DFE411C15D00021B1
:10428000316171604FF40071F560F1617061200778
:1042900004D530460222002100F0E6F8306D40F0EF
:1042A000010030653046BDE8F0810020FBE72DE9D4
:1042B000F0410D460646104C206DC10704D0410860
:1042C00004D020F00104F7E722460EE0542000F06D
:1042D0009CF807000ED0206D47F0010108435421DF
:1042E00020653846FFF7B8FC3A4629463046BDE817
:1042F000F0418DE70020D6E7100100202DE9F047BE
:1043000004464FF000094FF0FF37C568D4E9048632
:10431000A80707D0204600F057F93046FFF7F4FD14
:10432000002802DA3846BDE8F087280502D5404665
:10433000FFF738FE4C212046FFF78EFC206D20F061
:10434000010020654846EEE710B50446AFF3008053
:104350002046BDE81040FBF71DBF10B500F07EF908
:10436000BDE8104000F074B9004870470C0200200E
:1043700070470000004870471402002070477047E3
:104380007047704738B504460A4600206946AFF3C7
:104390000080002808BF38BD02460099204600F082
:1043A000A4F9012038BD012000F0F3B9F8B5AFF34E
:1043B0000080054600200C46102000BF0646A819C4
:1043C000A0420DD9324669460020AFF300800700B5
:1043D00008BF00F0DEF90098A04218BF0546C419D6
:1043E000FFF7C8FF05600746F01D20F007004619DB
:1043F000284600F073F9B44208BFF8BDA21B31464D
:104400003868BDE8F84000F070B970B50646FFF7AF
:10441000B1FF056806F10B0020F00704B4429CBF11
:10442000002070BD2B466A68BAB11068A04210D354
:1044300004F1080188423CBF5068586007D35168B6
:10444000101941601168091B016058601460101D4B
:1044500070BD13465268002AE7D121462846FFF76F
:1044600091FF0028DED170BD2DE9F04104461646CB
:104470000D464769007B80072ED03846FFF759FD6F
:1044800050BB3EB3012E02D0022E25D104E02046BF
:1044900000F045F905441DE03846FFF758FDE16896
:1044A000002841F01001E16005DA204600F058F8DC
:1044B0000120BDE8F081C9030BD56268E16A914231
:1044C00000D81146A26911442269891A814200DD8F
:1044D00008460544002D01DA0220EAE7E16A606837
:1044E000E268814206D29103E06203D522F40031F2
:1044F00041F01002A6690027AE4213DCE16A814256
:1045000001D90B4600E0034603EB060C2369ACEB34
:10451000030CAC4506DD814201D98C4600E084469F
:104520009C4505D1A760276042F02000A5620DE000
:10453000AD1BE669AE1B8142A66000D90846C01AD1
:10454000281A20605819606022F0200003490840B2
:10455000E060002084F84870ABE70000BFCFD7FFD1
:10456000C16821F4001141F08001C1600021816027
:10457000016070472DE9F047814614460E464FF022
:10458000FF383248D5685769054209D03846A169D5
:10459000FFF7D5FC002811DB2C48C0430540E5603F
:1045A0002B46324649463846FFF7B4FCA16920F055
:1045B0000042B21A11440028A16103D02046FFF73F
:1045C000CFFF4046BDE8F08770B504460569C06A74
:1045D0006168884200D80846E16821F42011E16052
:1045E000C90312D5A84208D02246411B2846FFF72E
:1045F000C1FF10B14FF0FF3070BD0020E562C4E98B
:104600000150E06820F48030E060002070BD10B5FB
:104610000446C06820F02000E060A16AA0698842DA
:104620000DD02046FFF7D0FFE06820F4405040F066
:104630001000E060A06AA0612069E062606044F25E
:104640004001E0688843E06010BD000010000200F7
:10465000002801D000F03CB87047000010B50146BA
:1046600002A000F07DF8012010BD00005349475220
:10467000545245443A2052656469726563743A2025
:1046800063616E2774206F70656E3A200000000031
:1046900010B5431C02E010F8011B71B18107FAD17B
:1046A0004FF0013202C88C1A8C4314EAC211F9D0BF
:1046B000C01A0A0603D0C01E10BDC01A10BD0A04DD
:1046C00001D0801E10BD0902FCD0401E10BD0000AC
:1046D00001491820ABBEFEE7260002000021016060
:1046E000C0E90110704710207047034640688C46AF
:1046F000002818BF88423CBF03464068F8D31868BA
:104700001844884207D00CF1030020F00700001D78
:10471000411A521A0146081D0A60FFF743BC10B542
:104720000146C268900703D0900607D5886A0AE060
:1047300000F03EF801210160881E10BD8B694868B9
:1047400018440B69C01A91F848301BB191F8491010
:10475000401A10BD1103FCD50028FADD401E10BD23
:1047600070B505460C460A2000E06D1C00F018F8F4
:1047700035B128780028F8D102E0641C00F010F868
:1047800014B120780028F8D1BDE870400A2000F06C
:1047900007B810B500F010F8BDE81040FFF758BF9B
:1047A00008B569468DF800000320ABBE08BD0000C7
:1047B000004870470C02002010B5012805D00021E8
:1047C00003A0FFF7CDFF012010BD09A1F8E700000D
:1047D00053494752544D454D3A204F7574206F66EA
:1047E0002068656170206D656D6F72790000000052
:1047F0003A2048656170206D656D6F727920636F36
:1048000072727570746564008A68002A01DCFFF7B3
:10481000F0BB521E8A604A68C0B2531C4B601070D5
:104820007047140115041602180319031A021B031A
:104830001C03303132333435363738394142434442
:104840004546403058003031323334353637383908
:10485000616263646566403078003A7474003A744B
:1048600074003A74740000008848000800000020BA
:104870005C00000028010008E44800085C000020FB
:10488000140800004401000800A24A0400000000CF
:1048900000000000010203040607080900000000F0
:1048A00001020304010203040607080902040608C2
:1048B00000000000000000000000000000000000F8
:1048C00000000000000000000000000000000000E8
:1048D00000000000000000000000000000000000D8
:0448E00000000000D4
:04000005080000ED02
:00000001FF
